:020000040000FA
:10000000085000206D020000810200008302000001
:10001000850200008502000085020000000000004B
:100020000000000000000000000000009D02000031
:100030008502000000000000F9020000A10A000093
:100040008502000085020000850200008502000094
:100050008502000085020000850200008502000084
:100060008502000085020000850200008502000074
:100070008502000085020000850200008502000064
:100080008502000085020000850200008502000054
:100090008502000085020000850200008502000044
:1000A0008502000085020000850200008502000034
:1000B0008502000085020000750600008502000030
:1000C0008502000085020000850200008502000014
:1000D0008502000085020000850200008502000004
:1000E0008502000000000000000000008502000002
:1000F00085020000850200008502000085020000E4
:1001000085020000850200008502000085020000D3
:1001100000000000000000008502000085020000D1
:1001200085020000850200008502000085020000B3
:1001300085020000850200008502000085020000A3
:1001400000000000000000000000000000000000AF
:100150008502000085020000850200008502000083
:10016000000000000000000000000000000000008F
:10017000000000000000000000000000000000007F
:10018000000000000000000000000000000000006F
:10019000000000000000000000000000000000005F
:1001A000000000000000000000000000000000004F
:1001B0008502000085020000850200008502000023
:1001C0008502000085020000850200008502000013
:1001D0008502000085020000850200008502000003
:1001E000850200008502000085020000000000007A
:1001F000000000008502000085020000850200006A
:1002000085020000850200000000000000000000E0
:1002100085020000850200008502000085020000C2
:1002200085020000850200008502000085020000B2
:1002300085020000850200008502000085020000A2
:100240008502000085020000850200008502000092
:100250008502000085020000850200008502000082
:100260008502000085020000850200004EF68850DD
:10027000CEF20000016841F47001016000F004B8A2
:10028000FEE7FEE7FEE70000DFF80CD000F078F8AC
:1002900000480047790B0000085000202C4B1968DB
:1002A0000868B0E8F04F80F30988BFF36F8F4FF014
:1002B000000080F3118870470000000008480068C3
:1002C000006880F308884FF0000080F3148862B65D
:1002D00061B6BFF34F8FBFF36F8F00DF00BF00BF6A
:1002E00008ED00E0DFF80C00016841F470010160E6
:1002F000704700BF88ED00E0EFF30980BFF36F8F18
:10030000134B1A681EF0100F08BF20ED108A20E969
:10031000F04F106009B44FF0BF0080F31188BFF3B5
:100320004F8FBFF36F8F01F093FB4FF0000080F30E
:10033000118809BC19680868B0E8F04F1EF0100F6A
:1003400008BFB0EC108A80F30988BFF36F8F704745
:10035000DC2A0020EFF30580704740EA01039B0789
:1003600003D009E008C9121F08C0042AFAD203E02A
:1003700011F8013B00F8013B521EF9D27047000012
:10038000064C074D06E0E06840F0010394E80700E2
:1003900098471034AC42F6D3FFF77AFFE02A00000A
:1003A000002B000070B58D1810F8014B14F00302FB
:1003B00001D110F8012B231106D110F8013B03E005
:1003C00010F8016B01F8016B521EF9D1ABB110F8B6
:1003D000012B04F00C048A1A0C2C03D0A2EB84121B
:1003E0009B1C08E010F8014BA2EB0422F8E712F87E
:1003F000014B01F8014B5B1EF9D5A942D4D3002073
:1004000070BD00BFFEE7000008B501460A78094B41
:1004100053F8220000F58260C2684B781A43C2602C
:10042000C268009202684B789A430260A0F582602D
:1004300008BD0000B42A00202DE9F04307460D4610
:100440009046384600F0FEF8144850F827404FF028
:100450000009D4F81C052843C4F81C05D4F8280565
:10046000A843C4F82805D4F820042843C4F820047D
:10047000002609E00120B040284020B1B10008FA70
:1004800001F040EA0909761C082EF3DBD4F82C05AC
:1004900040EA0900C4F82C05BDE8F083B42A002026
:1004A000F0B506460D461746304600F0CBF820481A
:1004B00050F82640052E08D105F0010028B11D484E
:1004C000C4F820050120C4F82405D4F80004A8438A
:1004D000C4F80004D4F82004A843C4F8200427B1C9
:1004E000012F0DD0022F17D110E0D4F81005A8432A
:1004F000C4F81005D4F81405A843C4F814050BE09B
:10050000D4F810052843C4F8100505E0D4F8140504
:100510002843C4F8140500BF00BFD4F81C052843C5
:10052000C4F81C05D4F82805A843C4F82805F0BD74
:10053000B42A00204B434F4C2DE9F0410546884634
:1005400016461F4628783D4951F82040062E55D2C0
:10055000DFE806F054031436254704F2044420680B
:10056000697808432060A06869788843A060606863
:10057000697888436060A4F2044440E004F20444D3
:100580002068697808432060A06869780843A06003
:100590006068697888436060A4F204442FE004F244
:1005A00004442068697888432060A068697888439B
:1005B000A0606068697888436060A4F204441EE02B
:1005C00004F204442068697888432060A068697850
:1005D0000843A0606068697888436060A4F20444BE
:1005E0000DE0D4F8040469788843C4F80404D4F80E
:1005F000080469780843C4F8080400E000BF00BF9D
:10060000D4F81C0469780843C4F81C04D4F8100416
:1006100069780843C4F810042878052806D14146B3
:100620001E2000F0A1F80648076003E04FF0FF30FD
:10063000BDE8F08100BF0020FAE70000B42A0020E6
:10064000CC2A00200146012202FA01F0074A126872
:10065000024052B9064A12680243054B1A6000BFB5
:10066000024A12680240002AFAD0704708EA0F4096
:1006700008E60F4010B50448446904480168204664
:1006800000F01EF810BD0000B42A0020CC2A002083
:1006900008B501460A78094B53F8220000F582603C
:1006A000C2684B781A43C260C268009202684B78F5
:1006B0001A430260A0F5826008BD0000B42A002041
:1006C000F8B504460E46D4F81854D4F81C04284350
:1006D000C4F81C04D4F81C040090E8B210B10EB1A8
:1006E0002846B047F8BD00001CB572B600F064F8AB
:1006F00000F05CF80F490860012211210520FFF786
:10070000CFFE0D48006801900C4B0422072101A880
:10071000FFF712FF0848001D00680090074B0422F5
:1007200007216846FFF708FF402000F021F962B674
:1007300000201CBD00000020E8290000590A00002C
:100740000021002005E0064A02EB0012127B114353
:10075000401C044A12688242F5DC084670470000DB
:1007600010000020AC2A00202DE9F04104460E467E
:100770003146204600F054F92046E11704EBD161E0
:10078000C1F34717084800EB87052046E11704EB43
:10079000D1614911A4EB41182868012101FA08F13F
:1007A00008432860BDE8F08100E100E001480068EE
:1007B00070470000D02A00201C48006F40F0004025
:1007C0001A4908670846006F40F400600867084649
:1007D000006E20F4F86040F4A86008660846006FD8
:1007E00020F0700008670846006F20F4005008678A
:1007F0000846006F40F0804008670846006F20F010
:10080000FE5040F08070086700BF0848006D00F09F
:1008100040000028F9D00548006F20F4006003492B
:1008200008670348034908607047000000E00F4074
:1008300000B4C404D02A00202DE9F04107468846C0
:1008400015461E463C4850F8274017B1012F6FD17E
:100850004DE03A48006840F0010038490860B8F1BE
:10086000000F06D0B8F1030F15D0B8F1040F3AD13C
:1008700025E0042240210120FFF7DEFD0020206456
:10088000C8202066681E2065701EA065206C40F0A0
:100890000100206429E0042220210120FFF7CCFD83
:1008A000002044F8800FC8206062681E2061701E1E
:1008B000A061206840F0010044F8800915E004229E
:1008C00010211046FFF7B8FD002044F8C00FC820E3
:1008D0002062681E2061701EA061206840F0010047
:1008E00044F8C00901E0AFF3008000BF20E01348E6
:1008F000006840F0020011490860B8F1030F13D1FD
:10090000052280210020FFF797FD002044F8800F8A
:10091000C8206062681E2061701EA061206840F0DF
:10092000010044F8800901E0AFF3008000BF00BF80
:1009300000BFBDE8F0810000D42A002040E60F404F
:1009400010B5044B53F82020936801248C40A34336
:10095000936010BDD42A002010B5044B53F820201A
:10096000936801248C402343936010BDD42A002057
:100970000146164A126842F00102144B1A60002028
:1009800002E0421CD0B24910082803DA01F001024B
:10099000002AF6D0002812DD0D4A126E22F46022E1
:1009A0000B4B1A661A46136E421E43EA4242084B2C
:1009B0001A661A46126E42F480121A6605E0044A5C
:1009C000126E22F48012024B1A66704740E60F4006
:1009D00000E00F402DE9F04104460E461746E0784E
:1009E00008B1207920B939463046FFF7A9FF13E056
:1009F000E0780A4931F81050284605EBD0714FEAEB
:100A0000610843462A4639463046FFF715FF394606
:100A10003046FFF7A1FF00BFBDE8F081EE290000DE
:100A2000F0B584100B4A02EB84030E2202EA410166
:100A30000246C71700EB9777BF10A0EB87074FF070
:100A4000040C0CEBC70501FA05F61A6832431A606C
:100A5000F0BD000000E400E01CB504460C4800684E
:100A6000019001A8FFF7D0FC0A490C70002000900B
:100A700069460948006801F01FFB009838B14FF043
:100A8000805006490860BFF34F8FBFF36F8F1CBDC6
:100A9000E02900000C0000200400002004ED00E02C
:100AA00010B500BFBF2080F31188BFF34F8FBFF395
:100AB0006F8F00BF01F0B6FD18B14FF080500449B0
:100AC000086000BF002080F3118800BF10BD000047
:100AD00004ED00E002E008C8121F08C1002AFAD1A4
:100AE00070477047002001E001C1121F002AFBD1AE
:100AF000704700002DE9F04107463E4656B900BF59
:100B0000BF2080F31188BFF34F8FBFF36F8F00BFFB
:100B100000BFFEE713480068864201D100241EE0B2
:100B200000F03CFD756900F063FD0F4800688542E8
:100B300003D00E480068854201D102240FE00C4822
:100B4000854205D1B06A08B9032408E0022406E012
:100B50000848854200D00DB9042400E00124204655
:100B6000BDE8F081DC2A0020E02A0020E42A0020F1
:100B7000CC2B0020B82B00201CB5FFF7B5FD0028BA
:100B800001DAFFF73EFC03220021012001F0CCF83E
:100B90001E4908600021042001F098F81C490860F3
:100BA0001A48006800282ED00846006800282AD07D
:100BB0000020022103466422CDE9001015A1184847
:100BC00001F0EAFC002416E01648406800EB8400BF
:100BD000154901EB04118860134800EB0410012152
:100BE000CDE90010104800EB041364220FA1124855
:100BF00001F0D2FC641C0B480068A04201DD042C0B
:100C0000E2DB00F0D3FE00BFFEE70000040000209E
:100C100008000020537769746368205461736B0087
:100C20003D170000AC2A00201000002054726163C0
:100C30006B205461736B0000DD1A00002DE9F04158
:100C400005460E461F48076800201F49096881F8BD
:100C500045001D480068001D00F056FC50B91A48B8
:100C6000006890F82C1001208840184909688143D9
:100C700016480160681C38B936B113480168091D6F
:100C8000134800F07FFC1AE07C190F4800684460AC
:100C9000BC4207D20C480168091D0E48006800F0EC
:100CA00057FC0CE008480168091D0B48006800F07B
:100CB0004FFC0A480068844201D208480460BDE83D
:100CC000F0810000F02A0020DC2A0020F42A002015
:100CD000CC2B0020E42A0020E02A00200C2B00204E
:100CE00010B5044600F05AFC23480068401C224915
:100CF00008602248006840B920480460084600683F
:100D000001280DD100F064F90AE01D48006838B9E7
:100D10001A480068C06AE16A884201D8174804602E
:100D200018480068401C1749086094F82C100120EE
:100D3000884015490968084313490860E16A01EBD6
:100D40008101124A02EB8100211D00F01BFC00F022
:100D50004FFC0B48006868B108480068C06AE16A47
:100D6000884207D24FF0805009490860BFF34F8F87
:100D7000BFF36F8F10BD0000EC2A0020DC2A00209A
:100D8000F82A0020082B0020F42A0020402B002005
:100D900004ED00E010B500F001FC0C48006890B9CB
:100DA0000B4800F0C5FB0B4800F0C2FB08480A499D
:100DB000086008480949086000220C21032000F05F
:100DC000B3FF0249086000F013FC10BD202B002087
:100DD000E02B0020F42B0020182B00201C2B0020DF
:100DE00010B516E000F0DAFB0C48C068C468201D9E
:100DF00000F08AFB0A480068401E0949086009485B
:100E00000068401E0749086000F0F2FB204600F031
:100E100055F8044800680028E4D110BDB82B002024
:100E2000EC2A0020E82A002070B504460D46206C0C
:100E300070B1216CE0680844E0606168E068884255
:100E400001D32068E0602846226CE168FFF785FA4C
:100E500070BD2DE9F04104460F4615464FF00008DD
:100E6000A66B206C28B37DB93946226CA068FFF7C9
:100E700074FA216CA0680844A060D4E9011088428B
:100E800017D32068A06014E03946226CE068FFF7B1
:100E900064FA216CE068401AE0602168E0688842EA
:100EA00003D2216C6068401AE060022D01D106B1C6
:100EB000761E701CA0634046BDE8F08110B5044664
:100EC000206B00F0B3FB204600F0B0FB10BD00002B
:100ED0000146084A126812680AB9012200E000229D
:100EE0000A600A6822B9034A1268D268106800E0F2
:100EF00000207047182B002000BFFFF771FFFCE7B0
:100F00002DE9F04106460D4617469846069C0DB958
:100F1000246000E02760E66325640121204600F09C
:100F20002FFFBDE8F0812DE9FF5F81460E46924616
:100F3000DDE90E7B109CAAF10100216B01EB80081A
:100F400028F0070808F0070008B9012000E0002099
:100F500050B900BFBF2080F31188BFF34F8FBFF39C
:100F60006F8F00BF00BFFEE7002507E0715D04F151
:100F700034004155705D00B902E06D1C0A2DF5D3B7
:100F800000BF00213D200155032F00D30227E76257
:100F9000201D00F0DAFA04F1180000F0D6FA2461FE
:100FA000C7F10300A06164620020206484F844005B
:100FB00084F8450049464046039A00F08FFA2060C5
:100FC000BBF1000F01D0CBF80040BDE8FF9F00004F
:100FD00010B5002407E004EB84010F4A02EB810006
:100FE00000F0A6FA641C032CF5D30C4800F0A0FA1C
:100FF0000B4800F09DFA0B4800F09AFA0A4800F0FE
:1010000097FA0A4800F094FA04480949086004482D
:101010000849086010BD0000402B00207C2B0020F8
:10102000902B0020A42B0020B82B0020CC2B0020DC
:10103000E02A0020E42A00202DE9F04104460D4674
:1010400016461F464FF0000865602461B5420CD873
:10105000F01BA169884202D34FF0010811E0211D65
:101060000948006800F074FA0BE0BE4204D2BD42A9
:1010700002D34FF0010804E0211D0448006800F08D
:1010800067FA4046BDE8F0811C2B0020182B002099
:1010900070B5054600F082FAA86B08B9012400E09B
:1010A000002400F0A5FA204670BD70B5054600F09A
:1010B00075FAA86BE96B884201D1012400E0002495
:1010C00000F096FA204670BDF8B505460F46164862
:1010D0000068C068C468201D00F016FAE0690128A5
:1010E0001DD1A06941192B463A462046FFF7A4FFBF
:1010F000A8B1002003462A4601460090204601F090
:101100002DFC064656B900BFBF2080F31188BFF3FF
:101110004F8FBFF36F8F00BF00BFFEE700BF2046B9
:10112000616A8847F8BD0000182B002070B586B0B2
:101130006AE00398002867DB059C606908B9012014
:1011400000E0002010B9201D00F0DEF902A800F038
:10115000BBF8054603980A2854D2DFE800F00905D9
:101160000731334F0608323400BF00BF00BF00BF55
:101170000498A269811803462A462046FFF75CFFBF
:10118000E8B12046616A8847E069012817D100204C
:1011900000900498A169421800231946204601F0E6
:1011A000DDFB064656B900BFBF2080F31188BFF3B0
:1011B0004F8FBFF36F8F00BF00BFFEE700BF22E07D
:1011C00000BF20E000BF0498A061A06908B1012021
:1011D00000E0002050B900BFBF2080F31188BFF3AA
:1011E0004F8FBFF36F8F00BF00BFFEE7A0694119AB
:1011F0002B462A462046FFF71FFF04E0204600F05A
:1012000015FA00E000BF00BF002203A903480068F0
:1012100000F0C2FF00288CD106B070BD202B00204A
:10122000F8B505460C4600F00BFC684600F04CF89B
:101230000646009820BB44B9B54206D801F0E2FA50
:1012400031462846FFF740FF1CE03CB10E480068DD
:10125000006808B9012000E000200446A91B2246CE
:101260000A48006800F044FA01F0CCFA50B94FF097
:10127000805007490860BFF34F8FBFF36F8F01E0C5
:1012800001F0C0FAF8BD00001C2B0020202B00202C
:1012900004ED00E00A490968096809B9012100E084
:1012A000002121B14FF0FF31064A116006E00449E8
:1012B0000968C968C868034A41681160704700003E
:1012C000E02A00200C2B002070B5044601F0A4F9A0
:1012D000054607480068854204D200F00BF801205B
:1012E000206001E00020206001480560284670BDB4
:1012F000282B00202DE9F84332E024480068C0681C
:10130000056822480068C068C468201D00F0FCF829
:101310002046616A8847E069012821D1A069461901
:10132000AE4207D966602461211D1848006800F0AC
:101330000FF915E0002003462A460146009020469A
:1013400001F00CFB074657B900BFBF2080F311889E
:10135000BFF34F8FBFF36F8F00BF00BFFEE700BF2B
:101360000A480068006808B9012000E00020002851
:10137000C3D00648D0F800800548006803490860DB
:101380000348C0F80080BDE8F8830000182B002057
:101390001C2B00200E480068401C08B9012000E00A
:1013A000002050B900BFBF2080F31188BFF34F8FDA
:1013B000BFF36F8F00BF00BFFEE700BFBF2080F309
:1013C0001188BFF34F8FBFF36F8F00BF00BFFEE7E1
:1013D0002C2B002008B500BF6846FFF779FD0446B6
:1013E00020460099FFF71CFFFFF7A0FEF4E770B559
:1013F000044600F0D3F894F9455010E0606A08B94B
:10140000012000E0002038B904F1240001F0AEF919
:1014100018B100F089FA00E003E0681E45B2002D23
:10142000ECDC00BFFF2084F8450000F0E1F800F09C
:10143000B5F894F9445010E0206908B9012000E0A3
:10144000002048B904F1100001F090F908B100F053
:101450006BFA681E45B200E001E0002DECDC00BF35
:10146000FF2084F8440000F0C3F870BD70B5044656
:10147000002504F0070020B104F00700C0F10800C7
:10148000044400F0DDFA1248006820B9114820F049
:1014900007000F49086010480068204441F6F871C1
:1014A000884210D20C48006820440B4909688842E1
:1014B00009D90748006808490968451806480068BE
:1014C00020440549086001F09DF9284670BD0000E0
:1014D0003C2B0020102C0020382B0020001F4FF048
:1014E00080730360001F21F001030360001F054BA0
:1014F000036014380260001F6FF00203036020389D
:10150000704700009513000001460A69D1E90130D7
:101510009860D1E9010358605068884201D1886819
:101520005060002008611068401E1060106870470D
:1015300000F1080141604FF0FF31816000F10801C6
:10154000C1600161002101607047002101617047A5
:1015500010B502460B685C1C0CB9106907E002F17B
:10156000080000E04068446824689C42FAD9446856
:101570004C604C68A160886041600A611468641C1A
:10158000146010BD42684A6093688B60936859602C
:101590009160086103685B1C0360704700BFBF2057
:1015A00080F31188BFF34F8FBFF36F8F00BF0E48DA
:1015B0000068401C0C49086008460068012812D1E8
:1015C0000A480068C0B208B9012000E0002050B904
:1015D00000BFBF2080F31188BFF34F8FBFF36F8F21
:1015E00000BF00BFFEE770472C2B002004ED00E099
:1015F0000D48006850B900BFBF2080F31188BFF3C9
:101600004F8FBFF36F8F00BF00BFFEE70648006833
:10161000401E054908600846006820B9002080F394
:10162000118800BF00BF70472C2B002008B9012192
:1016300000E0002151B900BFBF2181F31188BFF341
:101640004F8FBFF36F8F00BF00BFFEE770470000F2
:1016500000204FF0E02108618861064800684FF4DF
:101660007A71B0FBF1F0401E4FF0E0214861072095
:10167000086170470000002070B5FEF76BFE04465D
:10168000102C16D304F1E02090F8F05315480078A0
:10169000854201DB012000E0002050B900BFBF20DF
:1016A00080F31188BFF34F8FBFF36F8F00BF00BF70
:1016B000FEE70D48006800F4E0600C4909688842C4
:1016C00001D8012000E0002050B900BFBF2080F306
:1016D0001188BFF34F8FBFF36F8F00BF00BFFEE7CE
:1016E00070BD0000302B00200CED00E0342B0020FA
:1016F0002DE9F04105460E4617462C46FFF74EFFF2
:1017000094F94400401C10B9002084F8440094F976
:101710004500401C10B9002084F84500FFF768FF21
:10172000A06B28B93A46314604F1240000F01EF9B6
:101730002046FFF75CFEBDE8F081000008B5FA2501
:1017400000BF4FF0FF312048006800F0D9FD064689
:10175000012E37D11D48007800F0100040B3FEF78D
:10176000EFFF98B900240CE00120194901EB0411A6
:10177000087300231A4619461648006800F04CFB0F
:10178000641C15480068A042EEDC11E000240BE068
:1017900000200F4901EB041108730D4901EB0411FE
:1017A000086800F055FE641C0B480068A042EFDC9E
:1017B000284600F015F80948006800906846FEF7D2
:1017C00067FF00BFBDE70000040000200C00002000
:1017D0001000002008000020AC2A0020E4290000AE
:1017E00070B504460025D4B11248006808B901203C
:1017F00000E0002050B900BFBF2080F31188BFF384
:101800004F8FBFF36F8F00BF00BFFEE700F018F9E6
:1018100000212046FFF712FA00F0F4FF05463DB91B
:101820004FF0805004490860BFF34F8FBFF36F8FB4
:1018300070BD0000142B002004ED00E02DE9F047FE
:1018400004460F464FF0000954B900BFBF2080F393
:101850001188BFF34F8FBFF36F8F00BF00BFFEE74C
:101860000FB1012000E0002050B900BFBF2080F37D
:101870001188BFF34F8FBFF36F8F00BF00BFFEE72C
:101880002048006808B9012000E0002050B900BFDE
:10189000BF2080F31188BFF34F8FBFF36F8F00BF5E
:1018A00000BFFEE700F0CCF8174806682068C519AD
:1018B0002068B04207D92068A8420BD9B54209D99F
:1018C0004FF0010906E02068A84201D8B54201D9CD
:1018D0004FF001092560B9F1000F03D0A81B0021CA
:1018E000FFF7ACF900F08EFF8046B8F1000F07D18A
:1018F0004FF0805005490860BFF34F8FBFF36F8FE3
:10190000BDE8F087142B0020F02A002004ED00E051
:101910000349096801600349096841607047000094
:10192000042B0020F02A00200120014908607047A4
:10193000002B002070B504460D4654B900BFBF20EF
:1019400080F31188BFF34F8FBFF36F8F00BF00BFCD
:10195000FEE70548016818312046FFF7F9FD01212F
:101960002846FFF76BF970BDDC2A002070B50546EC
:101970000E46144655B900BFBF2080F31188BFF34F
:101980004F8FBFF36F8F00BF00BFFEE706480168AF
:1019900018312846FFF7F6FD0CB14FF0FF3621460F
:1019A0003046FFF74BF970BDDC2A00201CB51D48FE
:1019B00000210B463B22CDE900101BA11C4800F082
:1019C000EBFD0446012C02D100F09EFF0446012CE1
:1019D00015D100BFBF2080F31188BFF34F8FBFF335
:1019E0006F8F00BF4FF0FF3012490860012012498D
:1019F000086000201149086000F0CCF810E0601C7D
:101A000008B1012000E0002050B900BFBF2080F3E2
:101A10001188BFF34F8FBFF36F8F00BF00BFFEE78A
:101A20001CBD0000102B002049444C450000000064
:101A3000F90E00000C2B0020F82A0020F02A0020CC
:101A400002480068401C014908607047142B0020C0
:101A50001D48006818B101201C49086032E00020D0
:101A60001A4908601A480068B0FA80F0C0F11F01F6
:101A700001EB8100174A52F8200008B1012000E074
:101A8000002050B900BFBF2080F31188BFF34F8FF3
:101A9000BFF36F8F00BF00BFFEE701EB81020D4B6C
:101AA00003EB820042685268426000F1080243681A
:101AB000934202D14268526842604268D268064B43
:101AC0001A6000BF70470000142B0020002B00207C
:101AD000F42A0020402B0020DC2A002008B507460D
:101AE0003C4600BF4FF0FF312948006800F008FC79
:101AF0008246BAF1010F49D100F08EFD0090A06836
:101B00000668002533E005EB450036F91080B8F192
:101B1000000F0ED04FF47A7008FB00F04FF47A718A
:101B2000B0FBF1FB59466846FFF788FE207B00B901
:101B300024E005EB450006EB4000807800F0F0095A
:101B4000B9F1800F0CD0B9F1900F08D162792179E9
:101B500005EB450306EB4300FEF73CFF05E000BF45
:101B600061792079FEF7ECFE00BF00BF6D1C05EB2C
:101B7000450036F91000401C0028C4D100BF61792F
:101B80002079FEF7DDFE0020207300BFAAE70000E9
:101B9000080000201CB5464800684649884201D02C
:101BA000012000E0002050B900BFBF2080F3118861
:101BB000BFF34F8FBFF36F8F00BF00BFFEE73C48FE
:101BC00000683C49491E884201D0012000E0002005
:101BD00050B900BFBF2080F31188BFF34F8FBFF310
:101BE0006F8F00BF00BFFEE73349084600780190C1
:101BF000FF200A4610700846007800909DF800000B
:101C00009DF80020904201D1012000E0002050B951
:101C100000BFBF2080F31188BFF34F8FBFF36F8FDA
:101C200000BF00BFFEE79DF8000000F0BF00234AA0
:101C300010700720224A106009E021480068401E09
:101C40001F4A10609DF800004006000E00909DF8AD
:101C5000000000F080008028EFD0194800680002E2
:101C6000174A10601046008800F4E0601060124AC5
:101C7000019810700E482030006840F47F000C4935
:101C8000203108600846006840F07F400860FFF798
:101C9000DFFC00200B490860FEF724FB0A480068BF
:101CA00040F0404008490860FEF708FB00201CBDDA
:101CB00000ED00E071C20F4100E400E0302B002095
:101CC000342B00202C2B002034EF00E070B50546AB
:101CD0000E460DB1012000E0002050B900BFBF202A
:101CE00080F31188BFF34F8FBFF36F8F00BF00BF2A
:101CF000FEE7AE4201D8012000E0002050B900BF4D
:101D0000BF2080F31188BFF34F8FBFF36F8F00BFE9
:101D100000BFFEE702220021284600F005F8044635
:101D200004B1A663204670BD2DE9F84305460E4672
:101D300090460DB1012000E0002050B900BFBF2047
:101D400080F31188BFF34F8FBFF36F8F00BF00BFC9
:101D5000FEE70EB9002701E005FB06F707F1480092
:101D6000FFF784FB044644B104F1480943464A4660
:101D7000314628460094FFF7C3F82046BDE8F883B3
:101D800070B505460E462C4654B900BFBF2080F3FF
:101D90001188BFF34F8FBFF36F8F00BF00BFFEE707
:101DA000FFF7FCFBD4E90F12206801FB0200606022
:101DB0000020A0632068A060E06B401E226C2168B8
:101DC00000FB0210E060FF2084F8440084F8450026
:101DD0009EB9206908B9012000E00020A8B904F1EB
:101DE000100000F0C3FC80B14FF08050094908603A
:101DF000BFF34F8FBFF36F8F07E004F11000FFF7C1
:101E000097FB04F12400FFF793FBFFF7F1FB0120A0
:101E100070BD000004ED00E02DE9FF4383B00646ED
:101E200088461D464FF00009344654B900BFBF2014
:101E300080F31188BFF34F8FBFF36F8F00BF00BFD8
:101E4000FEE7B8F1000F01D1206C08B9012000E0D5
:101E5000002050B900BFBF2080F31188BFF34F8F1F
:101E6000BFF36F8F00BF00BFFEE7022D02D1E06B12
:101E7000012801D1012000E0002050B900BFBF209F
:101E800080F31188BFF34F8FBFF36F8F00BF00BF88
:101E9000FEE700F0B1FB08B9059808B9012000E0A1
:101EA000002050B900BFBF2080F31188BFF34F8FCF
:101EB000BFF36F8F00BF00BFFEE700BFFFF76EFBF1
:101EC000A06BE16B884201D3022D28D12A464146FE
:101ED0002046FEF7BEFF0746606A08B9012000E011
:101EE000002068B904F1240000F040FC88B14FF0F4
:101EF000805032490860BFF34F8FBFF36F8F08E007
:101F00003FB14FF080502D490860BFF34F8FBFF3B2
:101F10006F8FFFF76DFB012007B0BDE8F0830598D8
:101F200018B9FFF765FB0020F6E7B9F1000F04D1FF
:101F300001A8FFF7EDFC4FF00109FFF759FBFFF790
:101F40007FFDFFF72BFB94F94400401C10B90020E3
:101F500084F8440094F94500401C10B9002084F82E
:101F60004500FFF745FB05A901A800F0C1FAF0B94B
:101F70002046FFF79AF8A0B104F110000599FFF789
:101F8000D9FC2046FFF733FA00F03CFC002895D13D
:101F90004FF0805009490860BFF34F8FBFF36F8F38
:101FA0008CE72046FFF723FA00F02CFC86E720465A
:101FB000FFF71DFA00F026FC0020ADE704ED00E07D
:101FC0002DE9F05F07468A4690461E463C4654B9C6
:101FD00000BFBF2080F31188BFF34F8FBFF36F8F17
:101FE00000BF00BFFEE7BAF1000F01D1206C08B9B5
:101FF000012000E0002050B900BFBF2080F311880D
:10200000BFF34F8FBFF36F8F00BF00BFFEE7022EFD
:1020100002D1E06B012801D1012000E0002050B97D
:1020200000BFBF2080F31188BFF34F8FBFF36F8FC6
:1020300000BF00BFFEE7FFF71FFB00BFBF21EFF3AC
:10204000118081F31188BFF34F8FBFF36F8F00BFF3
:102050000546A06BE16B884201D3022E23D194F98F
:1020600045B0324651462046FEF7F3FE0BF1010023
:1020700088B9606A08B9012000E0002080B904F145
:10208000240000F073FB58B1B8F1000F08D0012014
:10209000C8F8000004E00BF1010040B284F84500EC
:1020A0004FF0010901E04FF0000900BF85F31188EE
:1020B00000BF4846BDE8F09F2DE9F04706460F46B1
:1020C000344654B900BFBF2080F31188BFF34F8F4F
:1020D000BFF36F8F00BF00BFFEE7206C08B901207F
:1020E00000E0002050B900BFBF2080F31188BFF38B
:1020F0004F8FBFF36F8F00BF00BFFEE7206808B9A6
:10210000606808B9012000E0002050B900BFBF207E
:1021100080F31188BFF34F8FBFF36F8F00BF00BFF5
:10212000FEE7FFF7A9FA00BFBF21EFF3118081F3AB
:102130001188BFF34F8FBFF36F8F00BF0546D4F8F0
:102140003890E06B48451ED994F945A009F101008B
:10215000A0630AF1010070B9606A08B9012000E0CB
:10216000002068B904F1240000F000FB40B13FB149
:102170000120386004E00AF1010040B284F8450013
:102180004FF0010801E04FF0000800BF85F311880F
:1021900000BF4046BDE8F0872DE9F74183B0054612
:1021A0000E464FF000082C4654B900BFBF2080F304
:1021B0001188BFF34F8FBFF36F8F00BF00BFFEE7E3
:1021C0000EB9206C08B9012000E0002050B900BF12
:1021D000BF2080F31188BFF34F8FBFF36F8F00BF15
:1021E00000BFFEE700F008FA08B9059808B9012019
:1021F00000E0002050B900BFBF2080F31188BFF37A
:102200004F8FBFF36F8F00BF00BFFEE700BFFFF728
:10221000C5F9A76BF7B131462046FEF705FE781EDB
:10222000A063206908B9012000E0002060B904F132
:10223000100000F09BFA38B14FF080502F49086031
:10224000BFF34F8FBFF36F8FFFF7D2F9012006B0B6
:10225000BDE8F081059818B9FFF7CAF90020F6E744
:10226000B8F1000F04D101A8FFF752FB4FF00108AD
:10227000FFF7BEF9FFF7E4FBFFF790F994F944008C
:10228000401C10B9002084F8440094F94500401C1B
:1022900010B9002084F84500FFF7AAF905A901A8A4
:1022A00000F026F9F0B92046FEF7F2FEA0B104F1E5
:1022B00024000599FFF73EFB2046FFF798F800F051
:1022C000A1FA0028A3D14FF080500C490860BFF359
:1022D0004F8FBFF36F8F9AE72046FFF788F800F023
:1022E00091FA94E72046FFF782F800F08BFA204637
:1022F000FEF7CEFE00288AD00020A8E704ED00E01B
:10230000F3B583B0054600272C4654B900BFBF2063
:1023100080F31188BFF34F8FBFF36F8F00BF00BFF3
:10232000FEE7206C08B9012000E0002050B900BF92
:10233000BF2080F31188BFF34F8FBFF36F8F00BFB3
:1023400000BFFEE700F058F908B9049808B9012069
:1023500000E0002050B900BFBF2080F31188BFF318
:102360004F8FBFF36F8F00BF00BFFEE700BFFFF7C7
:1023700015F9A66BCEB1701EA063206908B90120C3
:1023800000E0002060B904F1100000F0EFF938B16E
:102390004FF080502D490860BFF34F8FBFF36F8F10
:1023A000FFF726F9012005B0F0BD049818B9FFF732
:1023B0001FF90020F7E71FB901A8FFF7A9FA0127C5
:1023C000FFF716F9FFF73CFBFFF7E8F894F9440034
:1023D000401C10B9002084F8440094F94500401CCA
:1023E00010B9002084F84500FFF702F904A901A8FC
:1023F00000F07EF8F0B92046FEF74AFEA0B104F1E5
:1024000024000499FFF796FA2046FEF7F0FF00F04B
:10241000F9F90028ABD14FF080500C490860BFF3A8
:102420004F8FBFF36F8FA2E72046FEF7E0FF00F06B
:10243000E9F99CE72046FEF7DAFF00F0E3F92046D1
:10244000FEF726FE002892D00020ACE704ED00E065
:1024500070B505462C4654B900BFBF2080F31188E3
:10246000BFF34F8FBFF36F8F00BF00BFFEE7FFF7D3
:10247000E7FA2846FEF73EFB02282CD10126201D54
:10248000FFF742F8FFF78AF8A06A30B104F11800AC
:10249000FFF73AF8012084F84500FFF7A9F894F80F
:1024A0002C10012088400E49096808430C49086037
:1024B000E16A01EB81010B4A02EB8100211DFFF76C
:1024C00061F80949E06A0968C96A884204D90120AB
:1024D0000649086000E0002600F094F9304670BD1F
:1024E000F42A0020402B0020DC2A0020002B0020B2
:1024F00070B506460C4656B900BFBF2080F3118860
:10250000BFF34F8FBFF36F8F00BF00BFFEE754B91B
:1025100000BFBF2080F31188BFF34F8FBFF36F8FD1
:1025200000BF00BFFEE7FFF739F81848026870687F
:10253000131A1748006890F8450030B1002014497C
:10254000096881F8450001251CE02068401C08B995
:10255000002517E00F4930680968884204D0706888
:10256000904201D801250DE02068984207D92068E3
:10257000C01A20603046FFF7CBF9002502E00020AA
:1025800020600125FFF734F8284670BDF02A0020AE
:10259000DC2A0020042B00202DE9FF4F85B0804667
:1025A00089461746DDE912ABB800FEF75FFF064625
:1025B00056B14820FEF75AFF04460CB1266304E0EA
:1025C0003046FFF733F800E000247CB10020CDE96D
:1025D00000ABCDE902403A4649464046089BFEF72B
:1025E000A2FC2046FEF77CFB012501E04FF0FF3501
:1025F000284609B0BDE8F08F0549096809B90120EE
:1026000005E00449096809B9022000E0002070478C
:10261000F82A0020142B00200149086870470000A8
:10262000F02A00202DE9F0414FF0000844480068EE
:10263000002877D143480068451C4248056015BB17
:1026400041480068006808B9012000E0002050B946
:1026500000BFBF2080F31188BFF34F8FBFF36F8F90
:1026600000BF00BFFEE738480768384800683649B1
:1026700008603648076036480068401C34490860E6
:10268000FEF708FE00BF3348006885423CD300BF18
:102690002D480068006808B9012000E0002020B142
:1026A0004FF0FF302B4908602DE027480068C068D4
:1026B000C4686668B54202D22648066023E0201D41
:1026C000FEF722FFA06A18B104F11800FEF71CFF04
:1026D00094F82C10012088401F49096808431E49BE
:1026E0000860E16A01EB81011C4A02EB8100211DB7
:1026F000FEF748FF1A49E06A0968C96A8842C7D3E9
:102700004FF00108C4E700BF15480068C06A00EB3D
:102710008000124951F82000012801D94FF001082A
:1027200005E0FFE70F480068401C0E4908600E48AE
:10273000006808B14FF001084046BDE8F081000094
:10274000142B0020F02A0020E02A0020E42A002098
:10275000042B00200C2B0020F42A0020402B00200A
:10276000DC2A0020FC2A0020002B002070B5064641
:10277000F068C46854B900BFBF2080F31188BFF36C
:102780004F8FBFF36F8F00BF00BFFEE704F118004B
:10279000FEF7BAFE15480068A8B9201DFEF7B4FE82
:1027A00094F82C1001208840114909680843104909
:1027B0000860E16A01EB81010E4A02EB8100211DF4
:1027C000FEF7E0FE04E004F118010B48FEF7DAFE24
:1027D0000A49E06A0968C96A884204D901250120CA
:1027E0000749086000E00025284670BD142B002032
:1027F000F42A0020402B0020A42B0020DC2A0020FB
:10280000002B002070B5002400263648006850B91F
:1028100000BFBF2080F31188BFF34F8FBFF36F8FCE
:1028200000BF00BFFEE7FEF7B9FE2E480068401E5D
:102830002C4908600846006800284FD12A480068E3
:1028400000284BD024E02948C068C46804F118006F
:10285000FEF75AFE201DFEF757FE94F82C100120BB
:10286000884023490968084321490860E16A01EB6F
:102870008101204A02EB8100211DFEF783FE1E49E3
:10288000E06A0968C96A884202D301201B490860CE
:102890001648006808B9012000E000200028D2D0C6
:1028A0000CB1FEF7F7FC1648056865B100BFFFF7ED
:1028B000B9FE10B10120114908606D1E002DF6D13E
:1028C00000200F4908600D48006838B10126300724
:1028D0000C490860BFF34F8FBFF36F8FFEF788FE80
:1028E000304670BD142B0020EC2A0020A42B0020C1
:1028F000F42A0020402B0020DC2A0020002B00209E
:10290000FC2A002004ED00E01CB50024FEF742FA8A
:102910000D48006850B10D48032100232022CDE965
:1029200000100BA10C48FFF737FE044654B900BF56
:10293000BF2080F31188BFF34F8FBFF36F8F00BFAD
:1029400000BFFEE720461CBD202B0020242B0020CA
:10295000546D722053766300D51300002DE9FE43B9
:1029600004460D4616461F46DDF828804FF0000944
:1029700054B900BFBF2080F31188BFF34F8FBFF35E
:102980006F8F00BF00BFFEE71448006810B30095CA
:1029900001960294062D15DAFFF72EFE022808D1C3
:1029A0000023424669460D480068FFF735FA814624
:1029B00010E000231A46694608480068FFF72CFA21
:1029C000814607E000233A46694604480068FFF75D
:1029D000F7FA81464846BDE8FE830000202B002020
:1029E00005110000051100000501000005100000A0
:1029F00000000000000000000000000000000000D7
:102A000000000000000000000000000000000000C6
:102A100000000000000000000000000000000000B6
:102A2000000000008E7D8476DD6F9369A663105EE2
:102A3000C758CC53164FA64A76468142C73E403B04
:102A4000ED37CA34D331072F642CE6298C2754255F
:102A50003B234121631FA01DF71B651AEA18841749
:102A60003216F314C613AA129E11A110B20FD00E83
:102A7000FB0D320D750CC20B190B790AE3095509D0
:102A8000CF085008D9076807FE0699063A06E105FF
:102A90008C053D05F104AA0467042804EC03B40383
:102AA0007F034D031D03F002C6029E027902550208
:102AB00034021402F601DA01BF01A6018F01780188
:102AC00063014F013C012B011A010A01FB00ED00DB
:102AD000E000D300C700BC00B200A8009E000000C8
:102AE000002B000000000020402B0000A403000089
:102AF000042F0000402B0020C8240000E40A00003E
:102B000002220001D20310C2041FB201201008905B
:102B10004C40005F008006922F0CC2BE0C3248244D
:102B2000F24824324F0C11068317042430054D015E
:102B300090433032430C32400C3240183245483218
:102B4000455432475432470C32460C324684A12455
:102B50007148925F90925F78110C32510C32519013
:102B6000324D90324DA871240119CC324AFC324AC0
:102B70000C719011A801C7CC876B022C1514364E2E
:102B8000B0324E0CA52C3A4B04F64B2C3244C0C24A
:102B900044CC9A2F100215BE18A1901550013A840A
:102BA000365414C2540C922F180284F9E471601147
:102BB0000CA118794C07FF35058C05878CADB00446
:102BC000D9D001130CA9D0CEBE340501169C7DF0DE
:102BD000030338DC016CAD9405026CA6B40DFF183C
:102BE000060DDA18060B174D01C4ADBC077D0006B3
:102BF000DDE8057D9C06D55C7DE00719F47D840643
:102C0000A58C01190CA5BC71600A3C5FB8015BD8AA
:102C10000519080113C09E5F4404BF5F008C0405C2
:102C2000FF8C05898C0DFF18060D65180609FFF449
:102C30000986F44FFFFF0A0E2F91420C0312810602
:102C4000922F0C0215BE0CD12435681E81CE0D3C8E
:102C500004DC019198073A812E3E91FE0D3E81FEE3
:102C60000D33913C0C323C0C32370CC237181160DA
:102C7000323E30323E0C323D0C323D90A124710C7C
:102C8000835F006C925F84110C31DE3E811E093E31
:102C90009196063E81BA0681A8A11811D871A81193
:102CA000FC36410832410C719002C94DCC3C046B9A
:102CB000029104053E81C6033E917A0D33814B0C8F
:102CC0003D1005F3814A60A55001166075F8A5A472
:102CD00002152F301550013A843D9C03C3814D0CE1
:102CE000922F180284F9E43D42093381440CA11863
:102CF000794C07FF35058C05878C831704241D2C20
:102D00000475BC0215BE0C1D50043DBA1233814639
:102D1000187D8C04A9F4DD5C047DEC040338DC012F
:102D20006CA1FC026CA6B40DFF24060DE624061D62
:102D300014047D84030E152F6006AD1407CEBE0C5F
:102D400006AD2004A1487D0006A9049E5F4404014D
:102D5000190C7D30069E5F240603175F00A8AD2C7A
:102D60000471A80269DCD8ADCC06CEBED80601132A
:102D7000C0D9A00D2E500405FFB005ADB00DFF6CFD
:102D8000060D716C060DFF24030DAA24036D9A0E27
:102D90002F9232A611128206922F0C0215BE0CD170
:102DA000243D26163682FE3E92760EC382370C30C4
:102DB000054D0192340C32340C32306C3230183202
:102DC0003524323548713C110C32363C32366CA118
:102DD0002471483C045F00927C083E82DA0D3E92EA
:102DE0007E063282063E9202073382419C3DEE0E01
:102DF00033823E48712492BE3C110C32394832393C
:102E000024323B54323B0CA1C001CACCA580A1E4C2
:102E1000A14871A8A11803142F0024191CA508A506
:102E2000EC7178D13C3D0612C3824F0CC22F18A51D
:102E300044015BB415383638383238F0363A38C683
:102E40003A14D1CC01139C015EA805FD5C362C0818
:102E50003E2C84033E33840332335475BC0A18BEBF
:102E6000E8322B3C02932B480DFF7C050DF57C05C9
:102E7000ADE406ADFC060D16B004AD2C070D1338FD
:102E800004D1E47940A520D16C7DF006DD800701F6
:102E90001390D16C0D164404015ED80D1688050DF3
:102EA0001344049E5FE007925FF0C65FBC0D13D031
:102EB0000506FFDCB005AFB00DFF24060D29240682
:102EC00009FFDC09AADC6D441C2C0D500000205ABF
:102ED0000E0020F41C0020672A1007A02A00200002
:102EE000400212500412600422700E1202101104EB
:102EF0006D832A12801092901001450112AA01E1FF
:042F00005400000079
:040000050000026D88
:00000001FF
